{
  "contractName": "DutchExchangeProxy",
  "abi": [
    {
      "constant": true,
      "inputs": [],
      "name": "masterCopy",
      "outputs": [
        {
          "name": "",
          "type": "address"
        }
      ],
      "payable": false,
      "stateMutability": "view",
      "type": "function"
    },
    {
      "inputs": [
        {
          "name": "_masterCopy",
          "type": "address"
        }
      ],
      "payable": false,
      "stateMutability": "nonpayable",
      "type": "constructor"
    },
    {
      "payable": true,
      "stateMutability": "payable",
      "type": "fallback"
    }
  ],
  "bytecode": "0x608060405234801561001057600080fd5b506040516020806101d38339810180604052602081101561003057600080fd5b505180600160a060020a03811615156100aa57604080517f08c379a000000000000000000000000000000000000000000000000000000000815260206004820152601b60248201527f546865206d617374657220636f70792069732072657175697265640000000000604482015290519081900360640190fd5b60008054600160a060020a03909216600160a060020a03199092169190911790555060f9806100da6000396000f3fe6080604052600436106038577c01000000000000000000000000000000000000000000000000000000006000350463a619486e81146076575b6000805473ffffffffffffffffffffffffffffffffffffffff169036908037600080368184600019f43d6000803e8080156071573d6000f35b3d6000fd5b348015608157600080fd5b50608860b1565b6040805173ffffffffffffffffffffffffffffffffffffffff9092168252519081900360200190f35b60005473ffffffffffffffffffffffffffffffffffffffff168156fea165627a7a7230582053d5d737ce41635f1bbd312c4fb211defcea73dc82e7fc270351a609f198b8450029",
  "source": "pragma solidity ^0.5.2;\n\nimport \"@gnosis.pm/util-contracts/contracts/Proxy.sol\";\n\n\ncontract DutchExchangeProxy is Proxy {\n    constructor(address _masterCopy) public Proxy(_masterCopy) {}\n}\n",
  "sourcePath": "/Users/anxo/code/gnosis/dx-contracts/contracts/DutchExchangeProxy.sol",
  "compiler": {
    "name": "solc",
    "version": "0.5.2+commit.1df8f40c.Emscripten.clang"
  },
  "schemaVersion": "2.0.2",
  "updatedAt": "2019-02-07T19:40:43.708Z"
}