{
    "contractName": "TokenOWL",
    "abi": [
        {
            "constant": true,
            "inputs": [],
            "name": "creator",
            "outputs": [
                {
                    "name": "",
                    "type": "address"
                }
            ],
            "payable": false,
            "stateMutability": "view",
            "type": "function"
        },
        {
            "constant": true,
            "inputs": [],
            "name": "name",
            "outputs": [
                {
                    "name": "",
                    "type": "string"
                }
            ],
            "payable": false,
            "stateMutability": "view",
            "type": "function"
        },
        {
            "constant": true,
            "inputs": [],
            "name": "minter",
            "outputs": [
                {
                    "name": "",
                    "type": "address"
                }
            ],
            "payable": false,
            "stateMutability": "view",
            "type": "function"
        },
        {
            "constant": false,
            "inputs": [
                {
                    "name": "spender",
                    "type": "address"
                },
                {
                    "name": "value",
                    "type": "uint256"
                }
            ],
            "name": "approve",
            "outputs": [
                {
                    "name": "",
                    "type": "bool"
                }
            ],
            "payable": false,
            "stateMutability": "nonpayable",
            "type": "function"
        },
        {
            "constant": true,
            "inputs": [],
            "name": "totalSupply",
            "outputs": [
                {
                    "name": "",
                    "type": "uint256"
                }
            ],
            "payable": false,
            "stateMutability": "view",
            "type": "function"
        },
        {
            "constant": false,
            "inputs": [
                {
                    "name": "from",
                    "type": "address"
                },
                {
                    "name": "to",
                    "type": "address"
                },
                {
                    "name": "value",
                    "type": "uint256"
                }
            ],
            "name": "transferFrom",
            "outputs": [
                {
                    "name": "",
                    "type": "bool"
                }
            ],
            "payable": false,
            "stateMutability": "nonpayable",
            "type": "function"
        },
        {
            "constant": true,
            "inputs": [],
            "name": "decimals",
            "outputs": [
                {
                    "name": "",
                    "type": "uint8"
                }
            ],
            "payable": false,
            "stateMutability": "view",
            "type": "function"
        },
        {
            "constant": true,
            "inputs": [
                {
                    "name": "owner",
                    "type": "address"
                }
            ],
            "name": "balanceOf",
            "outputs": [
                {
                    "name": "",
                    "type": "uint256"
                }
            ],
            "payable": false,
            "stateMutability": "view",
            "type": "function"
        },
        {
            "constant": true,
            "inputs": [],
            "name": "symbol",
            "outputs": [
                {
                    "name": "",
                    "type": "string"
                }
            ],
            "payable": false,
            "stateMutability": "view",
            "type": "function"
        },
        {
            "constant": true,
            "inputs": [],
            "name": "masterCopy",
            "outputs": [
                {
                    "name": "",
                    "type": "address"
                }
            ],
            "payable": false,
            "stateMutability": "view",
            "type": "function"
        },
        {
            "constant": false,
            "inputs": [
                {
                    "name": "to",
                    "type": "address"
                },
                {
                    "name": "value",
                    "type": "uint256"
                }
            ],
            "name": "transfer",
            "outputs": [
                {
                    "name": "",
                    "type": "bool"
                }
            ],
            "payable": false,
            "stateMutability": "nonpayable",
            "type": "function"
        },
        {
            "constant": true,
            "inputs": [
                {
                    "name": "owner",
                    "type": "address"
                },
                {
                    "name": "spender",
                    "type": "address"
                }
            ],
            "name": "allowance",
            "outputs": [
                {
                    "name": "",
                    "type": "uint256"
                }
            ],
            "payable": false,
            "stateMutability": "view",
            "type": "function"
        },
        {
            "anonymous": false,
            "inputs": [
                {
                    "indexed": true,
                    "name": "to",
                    "type": "address"
                },
                {
                    "indexed": false,
                    "name": "amount",
                    "type": "uint256"
                }
            ],
            "name": "Minted",
            "type": "event"
        },
        {
            "anonymous": false,
            "inputs": [
                {
                    "indexed": true,
                    "name": "from",
                    "type": "address"
                },
                {
                    "indexed": true,
                    "name": "user",
                    "type": "address"
                },
                {
                    "indexed": false,
                    "name": "amount",
                    "type": "uint256"
                }
            ],
            "name": "Burnt",
            "type": "event"
        },
        {
            "anonymous": false,
            "inputs": [
                {
                    "indexed": true,
                    "name": "from",
                    "type": "address"
                },
                {
                    "indexed": true,
                    "name": "to",
                    "type": "address"
                },
                {
                    "indexed": false,
                    "name": "value",
                    "type": "uint256"
                }
            ],
            "name": "Transfer",
            "type": "event"
        },
        {
            "anonymous": false,
            "inputs": [
                {
                    "indexed": true,
                    "name": "owner",
                    "type": "address"
                },
                {
                    "indexed": true,
                    "name": "spender",
                    "type": "address"
                },
                {
                    "indexed": false,
                    "name": "value",
                    "type": "uint256"
                }
            ],
            "name": "Approval",
            "type": "event"
        },
        {
            "constant": false,
            "inputs": [
                {
                    "name": "_masterCopy",
                    "type": "address"
                }
            ],
            "name": "startMasterCopyCountdown",
            "outputs": [],
            "payable": false,
            "stateMutability": "nonpayable",
            "type": "function"
        },
        {
            "constant": false,
            "inputs": [],
            "name": "updateMasterCopy",
            "outputs": [],
            "payable": false,
            "stateMutability": "nonpayable",
            "type": "function"
        },
        {
            "constant": true,
            "inputs": [],
            "name": "getMasterCopy",
            "outputs": [
                {
                    "name": "",
                    "type": "address"
                }
            ],
            "payable": false,
            "stateMutability": "view",
            "type": "function"
        },
        {
            "constant": false,
            "inputs": [
                {
                    "name": "newMinter",
                    "type": "address"
                }
            ],
            "name": "setMinter",
            "outputs": [],
            "payable": false,
            "stateMutability": "nonpayable",
            "type": "function"
        },
        {
            "constant": false,
            "inputs": [
                {
                    "name": "newOwner",
                    "type": "address"
                }
            ],
            "name": "setNewOwner",
            "outputs": [],
            "payable": false,
            "stateMutability": "nonpayable",
            "type": "function"
        },
        {
            "constant": false,
            "inputs": [
                {
                    "name": "to",
                    "type": "address"
                },
                {
                    "name": "amount",
                    "type": "uint256"
                }
            ],
            "name": "mintOWL",
            "outputs": [],
            "payable": false,
            "stateMutability": "nonpayable",
            "type": "function"
        },
        {
            "constant": false,
            "inputs": [
                {
                    "name": "user",
                    "type": "address"
                },
                {
                    "name": "amount",
                    "type": "uint256"
                }
            ],
            "name": "burnOWL",
            "outputs": [],
            "payable": false,
            "stateMutability": "nonpayable",
            "type": "function"
        }
    ],
    "bytecode": "0x608060405234801561001057600080fd5b50610d83806100206000396000f3fe608060405234801561001057600080fd5b506004361061013e576000357c0100000000000000000000000000000000000000000000000000000000900480634417f4db116100ca578063dd62ed3e1161008e578063dd62ed3e1461033a578063f52a41f314610368578063f5a1f5b414610394578063f625ee28146103ba578063fca3b5aa146103e05761013e565b80634417f4db146102ac57806370a08231146102d857806395d89b41146102fe578063a619486e14610306578063a9059cbb1461030e5761013e565b8063095ea7b311610111578063095ea7b3146101f457806318160ddd1461023457806323b872dd1461024e5780632cef4dac14610284578063313ce5671461028e5761013e565b806302d05d3f1461014357806304e80e901461016757806306fdde031461016f57806307546172146101ec575b600080fd5b61014b610406565b60408051600160a060020a039092168252519081900360200190f35b61014b610415565b610177610424565b6040805160208082528351818301528351919283929083019185019080838360005b838110156101b1578181015183820152602001610199565b50505050905090810190601f1680156101de5780820380516001836020036101000a031916815260200191505b509250505060405180910390f35b61014b61045b565b6102206004803603604081101561020a57600080fd5b50600160a060020a03813516906020013561046a565b604080519115158252519081900360200190f35b61023c6104d1565b60408051918252519081900360200190f35b6102206004803603606081101561026457600080fd5b50600160a060020a038135811691602081013590911690604001356104d7565b61028c610604565b005b610296610711565b6040805160ff9092168252519081900360200190f35b61028c600480360360408110156102c257600080fd5b50600160a060020a038135169060200135610716565b61023c600480360360208110156102ee57600080fd5b5035600160a060020a03166107fe565b610177610819565b61014b610850565b6102206004803603604081101561032457600080fd5b50600160a060020a03813516906020013561085f565b61023c6004803603604081101561035057600080fd5b50600160a060020a038135811691602001351661092c565b61028c6004803603604081101561037e57600080fd5b50600160a060020a038135169060200135610957565b61028c600480360360208110156103aa57600080fd5b5035600160a060020a0316610ab6565b61028c600480360360208110156103d057600080fd5b5035600160a060020a0316610b31565b61028c600480360360208110156103f657600080fd5b5035600160a060020a0316610bff565b600654600160a060020a031681565b600054600160a060020a031690565b60408051808201909152600981527f4f574c20546f6b656e0000000000000000000000000000000000000000000000602082015281565b600754600160a060020a031681565b336000818152600260209081526040808320600160a060020a038716808552908352818420869055815186815291519394909390927f8c5be1e5ebec7d5bd14f71427d1e84f3dd0314c0f7b2291e5b200ac8c7c3b925928290030190a35060015b92915050565b60035490565b600160a060020a038316600090815260016020526040812054610500908363ffffffff610c7a16565b158061053d5750600160a060020a038416600090815260026020908152604080832033845290915290205461053b908363ffffffff610c7a16565b155b8061056e5750600160a060020a03831660009081526001602052604090205461056c908363ffffffff610c7f16565b155b1561057b575060006105fd565b600160a060020a0380851660008181526001602081815260408084208054899003905560028252808420338552825280842080548990039055948816808452918152918490208054870190558351868152935190937fddf252ad1be2c89b69c2b068fc378daa952ba7f163c4a11628f55a4df523b3ef92908290030190a35060015b9392505050565b600654600160a060020a031633146106505760405160e560020a62461bcd02815260040180806020018281038252602c815260200180610cc0602c913960400191505060405180910390fd5b600454600160a060020a0316151561069c5760405160e560020a62461bcd028152600401808060200182810382526027815260200180610cec6027913960400191505060405180910390fd5b6005544210156106e05760405160e560020a62461bcd028152600401808060200182810382526045815260200180610d136045913960600191505060405180910390fd5b6004546000805473ffffffffffffffffffffffffffffffffffffffff1916600160a060020a03909216919091179055565b601281565b600160a060020a038216600090815260026020908152604080832033845290915290205461074a908263ffffffff610c8616565b600160a060020a03831660008181526002602090815260408083203384528252808320949094559181526001909152205461078b908263ffffffff610c8616565b600160a060020a0383166000908152600160205260409020556003546107b7908263ffffffff610c8616565b600355604080518281529051600160a060020a0384169133917fe8a89cc6e5096f9d9f43de82c077c1f4cfe707c0e0c2032176c68813b9ae6a5c9181900360200190a35050565b600160a060020a031660009081526001602052604090205490565b60408051808201909152600381527f4f574c0000000000000000000000000000000000000000000000000000000000602082015281565b600054600160a060020a031681565b3360009081526001602052604081205461087f908363ffffffff610c7a16565b15806108b15750600160a060020a0383166000908152600160205260409020546108af908363ffffffff610c7f16565b155b156108be575060006104cb565b33600081815260016020908152604080832080548790039055600160a060020a03871680845292819020805487019055805186815290519293927fddf252ad1be2c89b69c2b068fc378daa952ba7f163c4a11628f55a4df523b3ef929181900390910190a350600192915050565b600160a060020a03918216600090815260026020908152604080832093909416825291909152205490565b600754600160a060020a031615156109b9576040805160e560020a62461bcd02815260206004820152601e60248201527f546865206d696e746572206d75737420626520696e697469616c697a65640000604482015290519081900360640190fd5b600754600160a060020a03163314610a1b576040805160e560020a62461bcd02815260206004820152601c60248201527f4f6e6c7920746865206d696e7465722063616e206d696e74204f574c00000000604482015290519081900360640190fd5b600160a060020a038216600090815260016020526040902054610a44908263ffffffff610ca316565b600160a060020a038316600090815260016020526040902055600354610a70908263ffffffff610ca316565b600355604080518281529051600160a060020a038416917f30385c845b448a36257a6a1716e6ad2e1bc2cbe333cde1e69fe849ad6511adfe919081900360200190a25050565b600654600160a060020a03163314610b025760405160e560020a62461bcd02815260040180806020018281038252602c815260200180610cc0602c913960400191505060405180910390fd5b6006805473ffffffffffffffffffffffffffffffffffffffff1916600160a060020a0392909216919091179055565b600654600160a060020a03163314610b7d5760405160e560020a62461bcd02815260040180806020018281038252602c815260200180610cc0602c913960400191505060405180910390fd5b600160a060020a0381161515610bc75760405160e560020a62461bcd028152600401808060200182810382526027815260200180610cec6027913960400191505060405180910390fd5b6004805473ffffffffffffffffffffffffffffffffffffffff1916600160a060020a03929092169190911790554262278d0001600555565b600654600160a060020a03163314610c4b5760405160e560020a62461bcd02815260040180806020018281038252602c815260200180610cc0602c913960400191505060405180910390fd5b6007805473ffffffffffffffffffffffffffffffffffffffff1916600160a060020a0392909216919091179055565b111590565b8101101590565b6000610c928383610c7a565b1515610c9d57600080fd5b50900390565b6000610caf8383610c7f565b1515610cba57600080fd5b50019056fe4f6e6c79207468652063726561746f722063616e20706572666f726d20746865207472616e73616374696f6e546865206d617374657220636f7079206d75737420626520612076616c6964206164647265737349742773206e6f7420706f737369626c6520746f2075706461746520746865206d617374657220636f707920647572696e67207468652077616974696e6720706572696f64a165627a7a72305820bb7c5360fc8919c384637f9583df5f68444b5532a512d994046726ca6bd7eb510029",
    "source": "pragma solidity ^0.5.2;\n\nimport \"@gnosis.pm/util-contracts/contracts/Math.sol\";\nimport \"@gnosis.pm/util-contracts/contracts/GnosisStandardToken.sol\";\nimport \"@gnosis.pm/util-contracts/contracts/Proxy.sol\";\n\ncontract TokenOWL is Proxied, GnosisStandardToken {\n    using GnosisMath for *;\n\n    string public constant name = \"OWL Token\";\n    string public constant symbol = \"OWL\";\n    uint8 public constant decimals = 18;\n\n    struct masterCopyCountdownType {\n        address masterCopy;\n        uint timeWhenAvailable;\n    }\n\n    masterCopyCountdownType masterCopyCountdown;\n\n    address public creator;\n    address public minter;\n\n    event Minted(address indexed to, uint256 amount);\n    event Burnt(address indexed from, address indexed user, uint256 amount);\n\n    modifier onlyCreator() {\n        // R1\n        require(msg.sender == creator, \"Only the creator can perform the transaction\");\n        _;\n    }\n    /// @dev trickers the update process via the proxyMaster for a new address _masterCopy\n    /// updating is only possible after 30 days\n    function startMasterCopyCountdown(address _masterCopy) public onlyCreator {\n        require(address(_masterCopy) != address(0), \"The master copy must be a valid address\");\n\n        // Update masterCopyCountdown\n        masterCopyCountdown.masterCopy = _masterCopy;\n        masterCopyCountdown.timeWhenAvailable = now + 30 days;\n    }\n\n    /// @dev executes the update process via the proxyMaster for a new address _masterCopy\n    function updateMasterCopy() public onlyCreator {\n        require(address(masterCopyCountdown.masterCopy) != address(0), \"The master copy must be a valid address\");\n        require(\n            block.timestamp >= masterCopyCountdown.timeWhenAvailable,\n            \"It's not possible to update the master copy during the waiting period\"\n        );\n\n        // Update masterCopy\n        masterCopy = masterCopyCountdown.masterCopy;\n    }\n\n    function getMasterCopy() public view returns (address) {\n        return masterCopy;\n    }\n\n    /// @dev Set minter. Only the creator of this contract can call this.\n    /// @param newMinter The new address authorized to mint this token\n    function setMinter(address newMinter) public onlyCreator {\n        minter = newMinter;\n    }\n\n    /// @dev change owner/creator of the contract. Only the creator/owner of this contract can call this.\n    /// @param newOwner The new address, which should become the owner\n    function setNewOwner(address newOwner) public onlyCreator {\n        creator = newOwner;\n    }\n\n    /// @dev Mints OWL.\n    /// @param to Address to which the minted token will be given\n    /// @param amount Amount of OWL to be minted\n    function mintOWL(address to, uint amount) public {\n        require(minter != address(0), \"The minter must be initialized\");\n        require(msg.sender == minter, \"Only the minter can mint OWL\");\n        balances[to] = balances[to].add(amount);\n        totalTokens = totalTokens.add(amount);\n        emit Minted(to, amount);\n    }\n\n    /// @dev Burns OWL.\n    /// @param user Address of OWL owner\n    /// @param amount Amount of OWL to be burnt\n    function burnOWL(address user, uint amount) public {\n        allowances[user][msg.sender] = allowances[user][msg.sender].sub(amount);\n        balances[user] = balances[user].sub(amount);\n        totalTokens = totalTokens.sub(amount);\n        emit Burnt(msg.sender, user, amount);\n    }\n}\n",
    "sourcePath": "@gnosis.pm/owl-token/contracts/TokenOWL.sol",
    "compiler": {
        "name": "solc",
        "version": "0.5.2+commit.1df8f40c.Emscripten.clang"
    },
    "schemaVersion": "2.0.2",
    "updatedAt": "2019-02-07T19:40:43.726Z"
}